:020000040800F2
:100000008818002089010008BD1E0008451C000852
:10001000B91E0008910200087123000800000000CA
:10002000000000000000000000000000611F000848
:10003000B502000800000000F11E00088D1F000836
:10004000A3010008A3010008A3010008A301000800
:10005000A3010008A3010008A3010008A3010008F0
:10006000A3010008A3010008A3010008A3010008E0
:10007000A301000895020008A3010008A3010008DD
:10008000A5020008A3010008A3010008A3010008BD
:1000900061230008A3010008A3010008A3010008D0
:1000A000A3010008A3010008A3010008A3010008A0
:1000B000A3010008A301000821200008A3010008F3
:1000C000A3010008A3010008A3010008A301000880
:1000D000A3010008A3010008A301000851230008A0
:1000E000A3010008A3010008A301000800F002F822
:1000F00000F03AF80AA090E8000C82448344AAF188
:100100000107DA4501D100F02FF8AFF2090EBAE885
:100110000F0013F0010F18BFFB1A43F0010318473B
:10012000D0300000F0300000103A24BF78C878C109
:10013000FAD8520724BF30C830C144BF04680C60ED
:10014000704700000023002400250026103A28BF35
:1001500078C1FBD8520728BF30C148BF0B60704739
:100160001FB51FBD10B510BD00F05CF81146FFF7BC
:10017000F7FF02F039F900F07AF803B4FFF7F2FF65
:1001800003BC00F07DF8000009488047094800479B
:10019000FEE7FEE7FEE7FEE7FEE7FEE7FEE7FEE737
:1001A000FEE7FEE704480549054A064B7047000094
:1001B0001D200008ED00000888120020881800208B
:1001C00088140020881400204FF0000200B5134668
:1001D00094469646203922BFA0E80C50A0E80C5067
:1001E000B1F12001BFF4F7AF090728BFA0E80C5018
:1001F00048BF0CC05DF804EB890028BF40F8042B11
:1002000008BF704748BF20F8022B11F0804F18BF7D
:1002100000F8012B704770477047704700487047DF
:10022000100000207546FFF7F9FFAE46050069464D
:10023000534620F00700854618B020B5FFF7B2FFFF
:10024000BDE820404FF000064FF000074FF00008D7
:100250004FF0000BAC46ACE8C009ACE8C009ACE814
:10026000C009ACE8C00921F007018D46704710B500
:100270000446AFF300802046BDE81040FFF77DBF85
:1002800001491820ABBEFEE72600020070470000BF
:10029000FEE7000080B540F23430C2F2000000F00A
:1002A00083FA80BD80B540F2F020C2F2000000F079
:1002B0007BFA80BD70470000EFF3108072B600BF7C
:1002C000FEE70000704700002DE9F04F81B00446C2
:1002D00000684669D0F804908768D0F80CB0D0F870
:1002E00010A0D0F81880F10703D1002530071CD4E6
:1002F00023E0F90710D00121BA07816009D47807FB
:1003000000F1AA80380700F1B080204600F0C6F95D
:1003100002E0204600F0C4F90025F80500F18480D1
:10032000F80300F1AA80300707D51BF0100004D0B5
:10033000206845F400751021C160700708D51BF0D6
:10034000080005D020680821C160204600F09CF913
:10035000B00706D52068C068800702D0204600F0AC
:1003600095F9700607D51AF0100004D0206845F4FE
:10037000806510210161B00608D51AF0080005D08B
:10038000206808210161204600F082F9F00606D5B8
:1003900020680069800702D0204600F07BF9B00396
:1003A00008D519F0100005D02068102141602046C2
:1003B00000F072F9F00308D519F0080005D02068A4
:1003C00008214160204600F075F9300440F18F802B
:1003D0005FEA497040F1888006F4807008EA1020D6
:1003E00028435FEA8871014648BF41F00201B20527
:1003F00058BF01465FEA48700D4648BF45F0040506
:10040000700558BF0D4630056ED518F070006BD0E2
:1004100010380009052862D8DFE800F00353565968
:100420005C5F45F008055AE020684FF48071BA051A
:1004300081600AD4780512D4380519D4204600F01A
:1004400031F9F8037FF56FAF17E0204600F02CF983
:10045000F8037FF568AF10E04FF400655DE705F540
:100460000055F8037FF55FAF07E04FF4805554E780
:1004700005F58045F8037FF556AF20684FF48031CD
:10048000BA0381600AD478030FD4380313D420460A
:1004900000F00CF930073FF548AF4EE7204600F07A
:1004A00007F930073FF541AF47E705F5004530074D
:1004B0003FF53BAF41E705F5803530073FF535AFF8
:1004C0003BE745F010050AE045F0200507E045F060
:1004D000400504E045F0800501E045F480752068A2
:1004E000816921F0700181612068042141602DB192
:1004F000606A284360622046FFF7E4FE01B0BDE871
:10050000F08F0000B0B5C8B1044690F8200010B9D3
:10051000204600F071F82068016841F00101016097
:1005200000F044FB054600BF20684168C90707D1B9
:1005300000F03CFB401B0B28F6D312E00120B0BDBD
:10054000016821F00201016000F030FB054600BFA8
:100550002068416889070DD500F028FB401B0B2857
:10056000F6D3606A052140F400306062012084F80F
:100570002010B0BD217E0268012922F0800208BF50
:1005800080320260617E0268012922F0400208BFC9
:1005900040320260A17E0268012922F0200208BFD9
:1005A00020320260E17E0268012922F0100218BFA9
:1005B00010320260217F0268012922F0080208BF80
:1005C00008320260617F0268012922F0040208BF3C
:1005D00004320260D4E901C2D4E9033561691A43E7
:1005E0002A431143ACF101021143C16100200121F2
:1005F000606284F82010B0BDB0B586B040F600044B
:10060000C4F201040068A4F524420021904205913F
:10061000CDE90311029101D006B0B0BD41F218003E
:10062000C4F20200426802AD42F0007242604268C9
:1006300002F000720192019A026842F00402026024
:10064000006800F00400019001984FF40060CDE9CB
:10065000020104912046294600F0AAF94FF4805087
:10066000029002200390032005902046294600F0C6
:100670009FF914200521002200F042FB142000F015
:100680003BFB06B0B0BD00007047000070470000A3
:10069000704700007047000070470000704700007E
:1006A000704700007047000070470000704700006E
:1006B0007047000070470000014690F821000228B2
:1006C00013D10868D1E90FC3026822F00E0202605C
:1006D000026822F001020260012000FA03F2CCF865
:1006E000042081F82100002002E00420886301201A
:1006F000002281F82020704780B590F8211002294F
:1007000023D10268116821F00E0111602F211368B6
:10071000C4F202018A4240F20401C4F2020123F051
:100720000103136016DD3023C4F202039A421DD088
:100730004423C4F202039A421BD05823C4F202039A
:100740009A421BD14FF4803320E0042181630121C0
:10075000084680BD0823C4F202039A420CD01C2331
:10076000C4F202039A4209D110230FE04FF48073C0
:100770000CE04FF4805309E0012307E001F1680C1D
:100780004FF08073624508BF4FF480130B60012166
:1007900080F82110426B002180F820100AB19047A8
:1007A0000021084680BD000010B50168D0E90FCED9
:1007B000DCF800200B685C0726D5042404FA0EF44C
:1007C000144021D00A68920603D40A6822F0040279
:1007D0000A602F22C4F20202914240F20402C4F2E3
:1007E000020259DD3023C4F2020399426CD0442343
:1007F000C4F2020399426AD05823C4F20203994218
:100800006AD14FF480236FE09C0729D5022404FAB3
:100810000EF4144024D00A68920606D40A6822F026
:100820000A020A60012280F821202F22C4F202026B
:10083000914240F20402C4F2020239DD3023C4F2D4
:100840000203994256D04423C4F20203994254D081
:100850005823C4F20203994254D14FF4003359E0B3
:100860001B0758BF10BD082303FA0EF31A4012D01D
:100870000A6822F00E020A60012101FA0EF2CCF899
:100880000420816380F82110016B0022002980F888
:10089000202018BF884710BD0823C4F202039942E4
:1008A00018D01C23C4F20203994215D140231BE047
:1008B0000823C4F20203994222D01C23C4F202038B
:1008C00099421FD1202325E04FF480630CE04FF4C0
:1008D000804309E0042307E002F168044FF08063DD
:1008E000A14208BF4FF480031360C16A0029D2D02F
:1008F000884710BD4FF400730CE04FF4005309E03B
:10090000022307E002F168044FF00073A14208BF20
:100910004FF400131360816A0022002980F8202020
:10092000B9D0884710BD0000014600284FF00100F3
:1009300008BF70472DE9F043D1F800C04FF6F873B7
:10094000CBF6FD734CF6CD426344CCF6CC42A3FB10
:1009500002236FF0030707EA93030027C4F202079C
:1009600001F10C09C1E90F730223D1E9012E99E8C5
:100970007002D1F81C8081F82130DCF8003043F699
:10098000F077BB431A4342EA0E0222432A43324322
:1009900042EA090242EA0802CCF8002000228A63F7
:1009A00081F8210081F820200020BDE8F043704745
:1009B0002DE9F04F82B00E68002E00F0F38041F276
:1009C0000042C4F20102042340F2004E904208BFEC
:1009D00003234FF6FF7CC4F2010E00930024012391
:1009E000C1F2100C4FF0000A4FF0000941E0012560
:1009F00004F00C030F279F402BEA070705FA03F3C7
:100A00003B4342F826304E6840F20C45F202DEF8D5
:100A1000082054BF22EA080242EA0802C4F2010593
:100A2000CEF808202A68B30254BF22EA080242EA3C
:100A300008022A60B303DEF8042054BF22EA080249
:100A400042EA0802F303CEF80420DEF800204FF05B
:100A5000010354BF22EA080242EA0802CEF800204D
:100A60000E680AF1010A36FA0AF204F1040400F0F1
:100A7000998003FA0AFB16EA0B08F1D04A6862452E
:100A800010DC122A50D8DFE802F0330A41454F4FFC
:100A90004F4F4F4F4F4F4F4F4F4F4F484C00D1F894
:100AA0000C9041E04FF6FF75C1F22105AA420FDC20
:100AB0000025C1F21105AA421AD00025C1F2120583
:100AC000AA4215D00025C1F22105AA4210D02BE080
:100AD0000025C1F22205AA420AD00025C1F2310543
:100AE000AA4205D00025C1F23205AA421CD100BF9E
:100AF0008A6842B1012A14BFC0F814B0C0F810B01F
:100B00004FF0080910E04FF004090DE0CA6802F147
:100B1000080909E04FF0000906E0CA6802F104097B
:100B200002E0CA6802F10C0922460546B8F5807F4A
:100B300024BF203A04352E680F279740BE4309FA98
:100B400002F232432A60CA79D2067FF589AF41F2B8
:100B50001803C4F202031A684FEA9A0642F001022F
:100B60001A601A6840F6000302F001020192019A2D
:100B7000AEF57E7252F826B0C4F2010398420FD04F
:100B800040F60043C4F2010398423FF430AF41F213
:100B90000003C4F20103009D984208BF022527E725
:100BA000002525E702B0BDE8F08F000041F2DC101F
:100BB000C2F200000068704740F2040041F2DC110C
:100BC000C2F20000C2F2000100780A681044086016
:100BD0007047000080B542F20000C4F202000168D4
:100BE00041F010010160032000F09AF80F2000F09E
:100BF00005F800F059F8002080BD0000B0B586B0BF
:100C000041F21C01C4F202010A68044642F00402E7
:100C10000A60096801A801F004010191019969467F
:100C200000F03CF9049D002D18BF012500F05EF98D
:100C30004DF68361A840C4F21B31A0FB01014FF0C7
:100C4000FF3000EB914140F2184040F60002C2F242
:100C50000000C4F2000240F2E7330025C0E90021A1
:100C6000C0E902530561856100F0EEFB0546C0B99D
:100C700040F21840C2F2000000F02EFC054680B998
:100C80001E2000F039F80F2C0AD81E202146002221
:100C900000F036F840F20800C2F20000046000E004
:100CA0000125284606B0B0BD80B582B041F21800DB
:100CB000C4F202000168002241F0010101600168F4
:100CC00001F0010101910199416841F080514160B9
:100CD00040680F2100F08050009000986FF00100F4
:100CE00000F00EF80420C4F201000168022262F351
:100CF0001A61016002B080BD80B501F03BFB80BD90
:100D000070B514460D46064601F044FB29462246BE
:100D100001F0D6F80146304601F044FB70BD0000FA
:100D200080B501F051FB80BD2DE9F04381B0002872
:100D300000F0898042F20008C4F202080446D8F8A4
:100D400000000D4600F0070088420CD2D8F80000E1
:100D500020F007002843C8F80000D8F8000000F091
:100D60000700A8426FD1206841F204098107C4F24C
:100D7000020917D5410705D5D9F8001041F4E06103
:100D8000C9F80010010705D5D9F8001041F46051E9
:100D9000C9F80010D9F80010A26821F0F001114341
:100DA000C9F80010C00745D1D8F8000000F00700CE
:100DB000A8420CD9D8F8000020F007002843C8F852
:100DC0000000D8F8000000F00700A8423BD12068DE
:100DD000410707D5D9F80010E26821F4E06111431A
:100DE000C9F80010000708D5D9F80000216920F4DF
:100DF000605040EAC100C9F8000000F09BF8D9F843
:100E0000001043F2CC12C1F30311C0F60002515C92
:100E100040F2000220FA01F140F20800C2F20000A4
:100E20000068C2F200021160FFF7E8FE002001B086
:100E3000BDE8F0836068022809D0012829D159F85B
:100E4000041C890307D4012001B0BDE8F08359F8E0
:100E5000041C8901F7D5D9F8001021F003010843DB
:100E6000C9F80000FFF7A2FE064641F2883700BF2E
:100E7000D9F80000616800F00C00B0EB810F93D04E
:100E8000FFF794FE801BB842F2D9032001B0BDE801
:100E9000F08359F8041C8907D5D5DCE70F220260DE
:100EA00041F20402C4F20202136803F00303436038
:100EB000136803F0F0038360136803F4E063C36016
:100EC00012684FF4E06303EAD202026142F20000CA
:100ED000C4F20200006800F00700086070470000DC
:100EE00040F20000C2F200000068704780B5FFF7D2
:100EF000F7FF41F20401C4F20201096843F2DC1277
:100F0000C1F30221C0F60002515CC84080BD000060
:100F100080B5FFF7E5FF41F20401C4F20201096860
:100F200043F2DC12C1F3C221C0F60002515CC8409A
:100F300080BD000041F2040CC4F2020CDCF8003069
:100F400003F00C00082841F20020C0F27A0018BF1C
:100F50007047C3F383420AA18A5CD90305D440F6E3
:100F60000010C0F23D0050437047DCF8001008A3A9
:100F7000C1F34041595C5043B0FBF1F0704700BFF2
:100F800002030405060708090A0B0C0D0E0F1010CA
:100F9000010200002DE9F04182B0002800F0C48079
:100FA0000446007841F20006C007C4F2020643D0AE
:100FB000706800F00C00042817D0706800F00C0076
:100FC000082802D17068C0030FD465682DB1B5F54B
:100FD000A02F10D0B5F5803F11D0306820F48030BC
:100FE0003060306820F480200CE03068800323D526
:100FF000606808BB98E0306840F48020306030685A
:1010000040F480303060FFF7D1FD002D054610D050
:101010003068800310D4FFF7C9FD401B6428F7D95E
:1010200004E100BFFFF7C2FD401B64284FF003003E
:1010300077D830688003F5D42078800718D5706899
:1010400010F00C0F07D0706800F00C00082826D1B3
:101050007068C00323D43068800702D52069012856
:1010600062D13068616920F0F80040EAC100306068
:10107000207800073DD5A06938B30020C4F2422093
:101080000121C0F88014FFF791FD0546706A8007C2
:101090002DD4FFF78BFD401B0228F7D9C6E020694D
:1010A000002840F20000C4F2422000F096800121A6
:1010B0000160FFF77BFD054630688007D1D4FFF75C
:1010C00075FD401B0228F7D9B0E00020C4F2422091
:1010D0000021C0F88014FFF769FD0546706A80079B
:1010E00007D5FFF763FD401B0228F7D99EE000F00B
:1010F00021FF207840071BD4E5698DB1706800F0AE
:101100000C00082847D1012D0ED07068216A00F428
:1011100080328A4208D1616A00F47010884203D19B
:10112000002002B0BDE8F081012002B0BDE8F081EE
:10113000F06910F0805808D1F06940F08050F061FB
:10114000F06900F080500190019847F20007C4F266
:1011500000073868C00510D4386840F480703860E3
:10116000FFF724FD054600BF3868C00505D4FFF72A
:101170001DFD401B6428F7D958E0E5681DB1052D19
:101180003CD0012D3ED0306A20F001003062306A40
:1011900020F0040039E00027C4F24227002038661E
:1011A000FFF704FD022D05460CD100BF3068800119
:1011B00054D5FFF7FBFC401B02284FF00300F5D984
:1011C000AFE700BF30688001AAD5FFF7EFFC401BF6
:1011D00002284FF00300F5D9A3E700210160FFF7D3
:1011E000E5FC0546306880077FF542AFFFF7DEFC7F
:1011F000401B02284FF00300F4D992E7306A40F018
:1012000004003062306A40F001003062FFF7CEFC2B
:10121000002D054641F2883714D000BF306A8007A0
:1012200013D4FFF7C3FC401BB842F7D9032002B028
:10123000BDE8F081FFF7BAFC401BB8424FF0030055
:101240003FF66FAF306A8007F4D4B8F1000F7FF437
:1012500053AFF06920F08050F0614DE7206AB0F59F
:10126000803F05D17168A26821F40031114371609B
:101270007168626A21F474111043084370600120A0
:101280003866FFF793FC0446306880013FF548AFAD
:10129000FFF78CFC001B02284FF00300F4D940E755
:1012A00070B538B10446406A30B10020206104F1C5
:1012B000140007E0012070BD6068B0F5827F03D0A4
:1012C00004F11C00002101600026A66294F8510080
:1012D00020B9204684F8506000F038F8022084F8E5
:1012E000510094E8071001F48271036802F404428B
:1012F00023F040030360236911440CF4006211449D
:1013000003F002026369114403F00102A369E56975
:10131000114403F40072114405F03802256A1144A7
:1013200005F08002A56A114305F4005211430160E3
:10133000042101EA13414160C16921F40061C161E6
:101340000120666584F85100304670BD70B586B0E6
:1013500040F60004C4F20104006804F520510026A0
:1013600088420596CDE90366029601D006B070BDAD
:1013700041F21800C4F20200016802AD41F480514C
:101380000160016801F4805101910199016841F007
:10139000040101600068294600F0040001900198F2
:1013A000A020029002200390032005902046FFF722
:1013B000FFFA4020CDE90206204629460496FFF7B1
:1013C000F7FA06B070BD00007047000070470000DB
:1013D00010B590F83C20012A4FF0020231D00123D1
:1013E00080F83C3080F83D200268D2F804E0D2F862
:1013F00008C00C682EF07003234340F2FF74C4F25F
:101400000004A242536005DCB2F1804F0ED040F2DE
:10141000004307E042F60043C4F201039A4205D0BC
:1014200040F60003C4F200039A4204D149682CF04C
:101430008003194391600121002280F83D1080F85B
:101440003C20104610BD0000002804BF012070475A
:1014500010B5044690F83D0028B9002084F83C00FF
:10146000204600F01FF8022084F83D002068211D6E
:1014700000F0DEFD012084F8460084F83E0084F888
:101480003F0084F8400084F8410084F8420084F86A
:10149000430084F8440084F8450084F83D000020AF
:1014A00010BD000081B0006842F60041C4F20101A5
:1014B000884201D001B0704741F21800C4F2020026
:1014C000016841F400610160006800F40060009070
:1014D000009801B07047000090F83D1001291CBF32
:1014E00001207047022180F83D10006840F2FF7231
:1014F000C168C4F20002904241F00101C16005DC04
:10150000B0F1804F0ED040F2004107E042F60041BA
:10151000C4F20101884205D040F60001C4F2000186
:10152000884206D1816801F00701062904BF002026
:101530007047016841F00101016000207047000020
:1015400010B5044690F83C0001284FF0020008BF97
:1015500010BD012284F83C2084F83D0020684FF63D
:10156000777382689A4382600A684F2A0FDC1F2AC9
:1015700022DD202A23D0302A21D0402A4DD14B68A9
:10158000CA68194600F0AEFD206840213BE06F2A92
:1015900017DDB2F5005F20D0B2F5805F2AD0702A47
:1015A0003BD1D1E9012CCB68614600F087FD206872
:1015B000816841F077011AE00AB1102A2DD1114655
:1015C00021E0502A18D0602A27D14B68CA681946F2
:1015D00000F09AFD2068602115E0D1E9012CCB686C
:1015E000614600F06BFD2068816841F480418160B4
:1015F00000200BE0002009E04B68CA68194600F0A3
:1016000071FD2068502100F065FD0020012184F863
:101610003D10002184F83C1010BD0120F6E70000C9
:101620007047000010B5044600680169890744BF8F
:10163000C1685FEA817138D420680169490744BFF5
:10164000C1685FEA41713CD420680169090744BF61
:10165000C1685FEA017141D420680169C90644BFCD
:10166000C1685FEAC16145D420680169C9071CBF30
:10167000C1685FEAC1714AD120680169090644BFA7
:10168000C1685FEA016149D420680169490644BF25
:10169000C1685FEA416148D420680169890644BF96
:1016A000C1685FEA816147D410BD6FF0020101613A
:1016B000012121778069800745D02046FFF7B0FFE0
:1016C00047E06FF00401016102212177806910F485
:1016D000407F41D02046FFF7A3FF43E06FF00801B1
:1016E000016104212177C06980073ED02046FFF7C1
:1016F00097FF40E06FF01001016108212177C06978
:1017000010F4407F3AD02046FFF78AFF3CE06FF0AC
:1017100001010161204600F03FF8ADE76FF0800164
:1017200001612046FFF750FEAEE76FF04001016116
:10173000204600F03DF8AFE76FF020010161204640
:10174000FFF744FE10BD204600F022F8204600F0CE
:1017500021F8002020776FE7204600F019F8204696
:1017600000F018F8002020776EE7204600F010F80F
:10177000204600F00FF8002020776DE7204600F0AB
:1017800007F8204600F006F8002020776CE70000FC
:10179000704700007047000080B5006840F6000107
:1017A000C4F20001884208BFFFF706FA80BD0000BE
:1017B000704700007047000070470000B0B582B06D
:1017C000036804461868D9685A6900F02F05202D6F
:1017D00001F0200505D125B1204600F0E3FC02B060
:1017E000B0BD5FEA007C1EBF02F0010E01F49072F2
:1017F00012EB0E024AD1226B0840C1063DD5012AE8
:101800003BD1002001901868019058680190019820
:101810005869400642D4A08DE18DE28D002A1CBF9C
:10182000401A5FEA004101D102B0B0BD216851E821
:10183000031F226821F4907142E80313002BF5D1B5
:10184000216851E8051F226821F0010142E80513D3
:10185000002BF5D1202184F842100021216300BF24
:10186000216851E8031F226821F0100142E80313A8
:10187000002BF5D10221616354E0010658D44006E3
:10188000D2D5204600F082FC02B0B0BDC20718BF1E
:1018900011F4807251D1420755D45BE0E06B0168CE
:1018A00049688AB2002ABFD0A38D9A42BCD2E18592
:1018B0008069202831D000BF206850E8030F2168DC
:1018C00020F4807041E80302002AF5D1206850E836
:1018D000050F216820F0010041E80502002AF5D13A
:1018E000206850E8050F216820F0400041E805021B
:1018F000002AF5D1202084F842000020206300BF98
:10190000206850E8030F216820F0100041E803022E
:10191000002AF5D1E06BFEF7CFFE02206063A08DB8
:10192000E18D401A81B22046FFF744FF02B0B0BDFE
:10193000204600F0E3FC02B0B0BD626C42F0010250
:101940006264420706D5BEF1000F03D0626C42F01C
:1019500002026264820706D5BEF1000F03D0626CFA
:1019600042F004026264BCF1000F06D55EEA050293
:1019700003D0626C42F008026264626C002A3FF499
:1019800053AF0840800602D5204600F00BFC2068CB
:101990004069616C00F0400001F00801401827D058
:1019A000204600F0CBFB2068406940061BD500BFF5
:1019B000206850E8050F216820F0400041E805024A
:1019C000002AF5D1E06B70B142F22D11C0F6000192
:1019D0004163FEF791FE00283FF426AFE06B416BB8
:1019E000884702B0B0BD2046FFF7E6FE02B0B0BDAA
:1019F0002046FFF7E1FE0020606402B0B0BD0000A9
:101A0000002804BF0120704710B5044690F841003B
:101A100028B9002084F84000204600F021F8242056
:101A200084F841002068C16821F40051C16020465B
:101A300000F01CFC2068016921F4904101614169BA
:101A400021F02A014161C16841F40051C1600020C8
:101A50002021606484F8411084F84210606310BD56
:101A6000F0B585B00446006844F20041C4F20001BC
:101A7000002788420497CDE9027701973FD044F6CA
:101A80000001C4F20001884200F0828043F60001A8
:101A9000C4F20101884240F0CE8041F21800C4F245
:101AA0000200016840F6000441F4804101600168D1
:101AB000C4F2010401F4804100910099016801AD74
:101AC00041F0040101600068294600F00400009024
:101AD00000984FF4007001900220029003200490BF
:101AE0002046FEF765FF4FF4806001900020CDE9AD
:101AF000020020462946FEF75BFF05B0F0BD41F22B
:101B00001800C4F20200416840F6000541F40031BB
:101B100041604168C4F2010501F40031009100996F
:101B2000016801AE41F0040101600068314600F037
:101B300004000090009804200190022002900320ED
:101B400004902846FEF734FF0820CDE90107284617
:101B500031460397FEF72CFF3020C4F2020040F21A
:101B6000F0253C30C2F200058021C5E90007284677
:101B7000C5E90271C5E90477C5E90677FEF7D4FE29
:101B8000002818BFFEF798FBE5636C6205B0F0BD56
:101B900041F21800C4F20200416801AE41F4802114
:101BA0004160416801F4802100910099016841F091
:101BB000080101600068314600F0080000900098BC
:101BC0004FF480600190022002900320049040F6C0
:101BD0000000C4F2010000F580652846FEF7E8FE2B
:101BE0004FF400600190002728463146CDE9027786
:101BF000FEF7DEFE40F234353020C2F20005C4F2BA
:101C000002008021C5E900072846C5E90271C5E93F
:101C10000477C5E90677FEF787FE002818BFFEF7B0
:101C20004BFB272004210022E5636C62FFF768F874
:101C30002720FFF761F805B0F0BD000070470000F5
:101C400070470000FEE7000080B540F2C82046F271
:101C50000041C2F20000C4F200010023102280E81B
:101C60000E00C0E90333C0E905338383FEF74AFC65
:101C7000002818BFFEF720FB80BD000080B582B0B1
:101C800041F21400C4F202000168002241F0010197
:101C900001600068052100F00100019001980D200D
:101CA000FFF72EF80D20FFF727F81020052100225E
:101CB000FFF726F81020FFF71FF802B080BD0000E4
:101CC00010B588B043F2B010C0F6000090E80E5096
:101CD000D0E905400191CDE9064001A8002102921A
:101CE0000393CDF810C0CDF814E000F0ABFB40F248
:101CF000C421C2F20001086008B010BD83B041F2F7
:101D00001800C4F20200016841F02001016001687E
:101D100001F0200102910299016841F00401016083
:101D2000016801F0040101910199016841F0080185
:101D30000160006800F008000090009803B0704750
:101D400080B540F2783043F20001C2F20000C4F2E4
:101D500001014FF48272002380E80E0000F11401AB
:101D60004FF4007C4FF0200E81E808500A21C0E9B2
:101D70000333C0E90833C0E90A31FFF791FA0028BC
:101D800018BFFEF799FA80BD80B586B040F2D0301A
:101D900042F600420021C2F20000C4F201024FF6F6
:101DA000FF73CDE90411CDE90211CDE90011C0E9BD
:101DB0000021C0E90213C0E904118161FFF744FB6F
:101DC000002818BFFEF778FA4FF48050029040F2D6
:101DD000D030C2F2000002A9FFF7B2FB002818BF02
:101DE000FEF76AFA0020CDE9000040F2D030C2F2DE
:101DF00000006946FFF7ECFA002818BFFEF75CFA0E
:101E000006B080BD80B540F2604043F60001C2F2EA
:101E10000000C4F2010100234FF00C0C4FF4E1323A
:101E200080E80E00C0E90333C0E905C3C361FFF7D2
:101E3000E7FD002818BFFEF73FFA80BD80B540F2ED
:101E4000A84044F20041C2F20000C4F200010023A5
:101E50004FF00C0C4FF4E13280E80E00C0E9033380
:101E6000C0E905C3C361FFF7CBFD002818BFFEF72B
:101E700023FA80BD80B540F2F04044F6000C48F2F1
:101E8000A062C2F20000C4F2000CC0F201024FF4E2
:101E9000805300214FF00C0EC0E900C2C0E90231AE
:101EA000C0E9041EC0E90611FFF7AAFD002818BF0B
:101EB000FEF702FA80BD0000FEE70000FEE700002A
:101EC00000F0070080F00703042B28BF04234FF025
:101ED000FF3C03380CFA03F338BF002099438140DC
:101EE0000CFA00F022EA00000843704700000000EE
:101EF000EFF30980BFF36F8F0D4B1A6820E9F00FE5
:101F000010602DE908404FF0500080F3118800F078
:101F100001FF4FF0000080F31188BDE80840196808
:101F20000868B0E8F00F80F30988BFF36F8F70473F
:101F30003805002081B040F20000C2F200000068C5
:101F400044F6D351C1F26201A0FB0101480A00909E
:101F500000BF0098411E00280091F9D101B07047E0
:101F6000074B19680868B0E8F00F80F30988BFF3E1
:101F70006F8F4FF0000080F311884EF00D0E704708
:101F800038050020012000F04FFAFBE780B54FF044
:101F9000500080F31188BFF36F8FBFF34F8F00F0B5
:101FA000C9FF30B14EF60450CEF200004FF0805120
:101FB0000160002080F3118880BD000070B590B0F2
:101FC00006AC20462821FEF7FFF8012006900A9073
:101FD0004FF4E01000254FF4803102260F90204688
:101FE0000595CDE90355CDE90155CDE90715CDE9B5
:101FF0000D61FEF7CFFF78B90F20CDE901064FF450
:102000008060CDE9040501A802210395FEF78CFE4E
:10201000002804BF10B070BDFEF74EF970470000F5
:1020200080B540F21840C2F20000FFF7FBFA80BD15
:1020300010B540F2FF7E0368C4F2000E42F6004C79
:102040007045C4F2010C05DCB0F1804F0AD040F2BB
:10205000004203E0604505D040F60002C4F20002F1
:10206000904203D14A6823F070031343704505DCA6
:10207000B0F1804F0AD040F2004203E0604505D045
:1020800040F60002C4F20002904203D1CA6823F471
:102090004073134323F080024B69D1F800E08C6851
:1020A0001A4360450260C462C0F828E002D10969A1
:1020B000CCF830100121416110BD0000D0F808C0FB
:1020C00011432CF47F4C41EA032141EA0C01816069
:1020D00070470000826822F07002114341F007014E
:1020E00081607047D0F820C0036A23F001030362C7
:1020F000836923F0F00343EA02122CF00A03194328
:102100008261016270470000D0F820C0036A23F0AA
:1021100010030362836923F4704343EA02322CF014
:10212000A00343EA011182610162704780B5406AF1
:102130000021C185C184FFF73FFB80BD016851E8E4
:10214000031F026821F4907142E80313002BF5D1BC
:10215000016851E8051F026821F0010142E80513FA
:10216000002BF5D1016B01290AD100BF016851E8AC
:10217000031F026821F0100142E80313002BF5D180
:10218000202180F8421000210163704780B501686A
:10219000CA6822F04002CA60202180F84110FFF78F
:1021A0004FFD80BD80B582B090F8421022291ED12B
:1021B0008268B2F5805F02D1016900294AD0816A44
:1021C000B2F5805F07D00AB9026922B1026852688D
:1021D00002F07F0201E0026852680A700121826AFF
:1021E00011448162C18D01390A04C18501D002B058
:1021F00080BD0168CA6822F02002CA60CA6822F461
:102200008072CA604A6922F001024A61202180F886
:10221000421000214163026B012A23D1016300BFF8
:10222000016851E8031F026821F0100142E803131E
:10223000002BF5D101680A68D20606D5002201926A
:102240000A680192496801910199818DFFF7B2FAFC
:1022500002B080BD0168826A49686FF35F21118016
:102260000221BCE7FFF7EAFC02B080BD10B50446CE
:102270000068D4E902C22369016921F44051114385
:102280000161616943EA0C021143C26841F20C63C7
:102290009A431143C1604169A26921F4407111431D
:1022A00043F60002C4F201029042416102D0FEF7FF
:1022B0001DFE01E0FEF72CFE6268192148439100E3
:1022C000B0FBF1F048F21F51C5F2EB11A0FB012366
:1022D0005A096FF0630302FB0300322303EB001083
:1022E000A0FB0101F02303EA5113206803EB021263
:1022F000C1F343111144816010BD000090F84110FA
:10230000212923D18168B1F5805F01D1016931B103
:10231000016A02684B1C03620978516007E0016A98
:10232000036831F8022B6FF35F225A600162C18C9F
:1023300001390A04C18418BF70470068C16821F0E0
:102340008001C160C16841F04001C1607047000078
:1023500080B540F2F040C2F20000FFF72FFA80BDD6
:1023600080B540F2C820C2F20000FDF7ADFF80BD8D
:10237000FEE70000002848BF704700F01F0101225F
:1023800002FA01F14EF200124009CEF2000242F8C8
:10239000201070474EF60C50CEF200000068C0F3DB
:1023A000022070474EF6145300F00F02CEF20003E5
:1023B00009011A4400F16043B0F1FF3FC8BF03F5C3
:1023C00064421170704700004EF60C51CEF20001CD
:1023D0000A684FF6FF031A4060F30A2242F0806059
:1023E00040F0FD7008607047FEF7F4FBFFF7E6FD74
:1023F000FFF784FCFFF742FCFFF726FCFFF7A0FC89
:10240000FFF7C2FCFFF7FEFCFFF718FDFFF732FDF8
:10241000FFF756FC00F010F8FEE70000B0F1840171
:1024200018BFC11C0846704780B5002808BF0120AE
:1024300000F0FEFB002080BD80B500F023FC0020F2
:1024400080BD00002DE9F04385B047690C46A7B177
:10245000856995B1D0E90086D0F81090B0F90800F0
:10246000FFF7DCFFCDE90007304641464A462346E8
:10247000029500F025FD049013E0D0E90056078A8C
:10248000B0F90800FFF7CAFF0DF1100C00903046BC
:1024900029463A462346CDF804C000F0DDFC012869
:1024A00003D1049805B0BDE8F083002005B0BDE875
:1024B000F0830000F0B581B00D4641F2802140F27A
:1024C0003856C2F20001C2F200060F6831680446B5
:1024D000081D00F0BDFA10B1601C0FD019E0306883
:1024E00041F2F412C06AC2F200020121136801FA3B
:1024F00000F023EA00001060601C0AD14DB1306882
:10250000011D41F25820C2F2000000F0EFFA01B0C4
:10251000F0BD3068E41944600AD340F24450C2F27E
:10252000000000683168043100F0C2FA01B0F0BD6B
:1025300040F23C50C2F2000000683168043100F003
:10254000B7FA41F23020C2F2000001688C4238BF75
:10255000046001B0F0BD000070B5044600F0D4FA8C
:1025600041F2E010C2F20000016840F2385501313A
:102570000160C2F20005296841F24C26C2F2000651
:1025800041B1306860B92868E16AC06A884298BF82
:102590002C6005E02C600068012801D100F006F9EC
:1025A00041F2F010C2F20000016841F2F412013170
:1025B0000160E06AC2F20002012113688140194300
:1025C000116040F2485100EB8000C2F2000101EBC3
:1025D0008000211D00F08AFA00F0BAFA306880B15C
:1025E0002868E16AC06A884228BF70BD4EF6045070
:1025F000CEF200004FF080510160BFF34F8FBFF368
:102600006F8F70BDF0B581B041F2E415C2F20005E4
:102610002868E0B141F26C2641F2E017C2F20006F0
:10262000C2F2000700F070FAF068C468201D00F0E4
:102630000FFA38680138386028680138286000F0DF
:1026400087FA204600F006F828680028EAD101B091
:10265000F0BD000010B5044690F85100022808BFF4
:1026600010BD012803D030B9206B00F089FA204654
:1026700000F086FA10BD4FF0500080F31188BFF3D0
:102680006F8FBFF34F8F00BFFEE7000040F2D450C2
:10269000C2F20000C21D22F0070210F0070CA0EBEE
:1026A000020318BF104641F25022C2F2000200217C
:1026B000C2E900014FF44062BCF1000F18BF03F5FE
:1026C00040620244083A40F2405322F00702C2F24C
:1026D00000031A60C2E90011111A1A68C0E900214A
:1026E00041F22C20C2F20000016041F22420C2F22B
:1026F0000000016041F2F810C2F2000001210170F7
:102700007047000040F248544EF60455C2F20004EF
:10271000CEF200054FF08056FFF774FF20680228C4
:10272000FAD32E60BFF34F8FBFF36F8FF4E7000033
:102730002DE9F047DDE909878246386B089C00EBFC
:1027400082000438994620F0070600200A5C3B18F6
:1027500083F834200A5C1AB10F2800F10100F5D388
:102760000025381D87F84350062C28BF0624FC623C
:10277000C7E9114500F098F907F1180000F094F945
:1027800084F00700B861304651464A463F617F6297
:10279000FD6487F8505000F04BF9B8F1000F386035
:1027A00018BFC8F80070BDE8F0870000B0B540F26F
:1027B00048550024C2F20005281900F069F91434C4
:1027C0008C2CF9D141F2FC14C2F20004204600F036
:1027D0005FF941F21025C2F20005284600F058F9D1
:1027E00041F23820C2F2000000F052F941F26C20B0
:1027F000C2F2000000F04CF941F25820C2F2000091
:1028000000F046F940F23C50C2F20000046040F291
:102810004450C2F200000560B0BD000080B541F236
:102820005022C2F2000200BF114612688242FBD35E
:10283000D1F804C001EB0C03834203D1406860442B
:1028400048600846D0F804C000EB0C03934201D066
:1028500013460BE040F24053C2F200031B689A4259
:1028600004D0D2E9003E0EEB0C02426081420360CC
:1028700018BF086080BD000006480068006880F34B
:10288000088862B661B6BFF34F8FBFF36F8F00DF6A
:1028900000BF00BF08ED00E040F23C50C2F2000073
:1028A0000168096821B10068C068C068406801E03B
:1028B0004FF0FF3041F23021C2F200010860704752
:1028C00081B00020009040F20C00C2F200000068CD
:1028D0004FF0500181F31188BFF36F8FBFF34F8F1B
:1028E000013001D0FEE700BF00980028FCD001B005
:1028F000704700002DE9F04381B0044600F002FA71
:1029000040F24056C2F200063068002808BFFFF7C8
:10291000BDFE41F2F819C2F2000999F80000002842
:1029200018BF4FF0004020420DD0002400F0B4FB4F
:1029300060071ED04FF0500080F31188BFF36F8FF7
:10294000BFF34F8FFEE7C4B114F0070004F1080194
:102950001EBF081A00F108015FEA41700ED04FF067
:10296000500080F31188BFF36F8FBFF34F8F00BF0C
:10297000FEE7204601B0BDE8F083002141F22428A3
:10298000C2F20008D8F800004A1E8242CDD241F2BD
:102990005020C2F2000005682F4657F8042F8A42E3
:1029A00011D22B685BB100BF1F4657F8042F284691
:1029B0001D468A4207D22B68002BF5D103E041F275
:1029C0005020C2F2000033689D42AED004682B68EC
:1029D000521A112A036010D36818430709D04FF028
:1029E000500080F31188BFF36F8FBFF34F8F00BF8C
:1029F000FEE742603960FFF711FF41F22C20396891
:102A0000D8F80020C2F200000368511A9942C8F8B1
:102A1000001038BF016099F80000083439680028B8
:102A20004FF0000018BF41F00041396028607DE799
:102A3000034642F6C100C0F600004FF0807C21F052
:102A4000010103E90310A3F1400043F8202C704773
:102A5000D0E9013201699A60D1F804C082688445E6
:102A6000536008BF4A6000220261086801380860AC
:102A70000868704740F27023C2F20003036040F21E
:102A80007000C2F2000008608020106070470000F3
:102A90004FF0FF31024642F8081F00214260C0E9B2
:102AA00003220160704700000021016170470000AF
:102AB00080B5D1F800C01CF1010207D000F1080375
:102AC0009E465B681A686245FAD901E0D0F810E0CA
:102AD000DEF8042008614A609160C1F808E0CEF891
:102AE000041001680131016080BD0000D0F800C011
:102AF000436808619A684B608A609A68996051607F
:102B00000CF10101016070474FF0500080F3118813
:102B1000BFF36F8FBFF34F8F40F20C00C2F2000083
:102B200001684A1C026001B170474EF60450CEF2B3
:102B300000000068000608BF70474FF0500080F3A7
:102B40001188BFF36F8FBFF34F8F00BFFEE7000008
:102B500040F20C00C2F20000016839B10139016095
:102B600018BF7047002080F3118870474FF0500065
:102B700080F31188BFF36F8FBFF34F8FFEE7000024
:102B8000B0B5002808BFB0BD044641F2F810C2F24B
:102B90000000007854F8041C002818BF4FF00040D3
:102BA00008420CD0A4F108052A6892B14FF05000F9
:102BB00080F31188BFF36F8FBFF34F8FFEE74FF0A5
:102BC000500080F31188BFF36F8FBFF34F8F00BFAA
:102BD000FEE721EA000044F8040C00F093F841F20B
:102BE0002421C2F2000154F8040C0A681044086061
:102BF0002846FFF713FE00F04FFAB0BD4EF210006A
:102C0000CEF2000000210160816040F20001C2F2BA
:102C10000001096844F6D352C1F26202A1FB02121C
:102C20004FF0FF3101EB92114160072101607047C5
:102C300010B5D8B1044641F2EC10C2F200000068B1
:102C400048B14FF0500080F31188BFF36F8FBFF38E
:102C50004F8F00BFFEE700F055F820460021FFF738
:102C600029FC00F019FA002818BF10BD4EF60450D8
:102C7000CEF200004FF080510160BFF34F8FBFF3E1
:102C80006F8F10BD10B586B0002405A804A903AA53
:102C9000CDE90444FFF7EEFEDDE9032005990023AA
:102CA000CDE9010142F20570C0F6000013A10094C5
:102CB00000F006F941F22821C2F200010860D8B103
:102CC0004FF0500080F31188BFF36F8FBFF34F8F29
:102CD00041F23020C2F200004FF0FF31016041F2BA
:102CE0004C20C2F200000121016041F28020C2F2BA
:102CF0000000046000F052F806B010BD49444C4595
:102D00000000000041F2EC10C2F200000168013145
:102D10000160704741F2EC10C2F20000006830B16F
:102D200041F28420C2F2000001210160704741F2AB
:102D30008420C2F200000021016041F2F410C2F2CE
:102D400000000068B0FA80F0C0B2C0F11F0040F28D
:102D5000485100EB8000C2F2000151F8202092B1EE
:102D600001EB800050F8041F4968021D9142016088
:102D700001D149680160006840F23851C068C2F270
:102D80000001086070474FF0500080F31188BFF3D6
:102D90006F8FBFF34F8F00BFFEE7000080B582B09A
:102DA0004EF20040CEF20000017841F2D4120191BF
:102DB000FF2101700178C2F200028DF803109DF826
:102DC000031001F05001117041F2D811C2F200015C
:102DD00007220A609DF90320B2F1FF3F0BDC0A686D
:102DE0009DF80330013A5B008DF803309DF9033004
:102DF000002BF5D40A600A68032A23D14FF4E0635C
:102E000003EA02220A6001990170D0F8201941F406
:102E10007001C0F82019D0F8201941F07041C0F8B5
:102E20002019FFF7EBFE40F20C00C2F20000002177
:102E30000160FFF721FDFFF76DFFFFF741FD002067
:102E400002B080BD4FF0500080F31188BFF36F8F48
:102E5000BFF34F8FFEE700002DE9F04383B0074634
:102E60009000984615468946FFF744FD78B106461E
:102E70005420FFF73FFD38B10446066354B94FF0C4
:102E8000FF3003B0BDE8F0833046FFF779FE002441
:102E9000002CF4D0DDE90A10002284F85120CDE99D
:102EA0000010384649462A4643460294FFF740FC44
:102EB0002046FFF751FB012003B0BDE8F08300007E
:102EC00070B586B00B9CBCB10C9EF6B15425049530
:102ED000049D542D23D10A9D3463022486F8514069
:102EE00005ACCDE900540296FFF722FC3046FFF70F
:102EF00033FB059806B070BD4FF0500080F3118889
:102F0000BFF36F8FBFF34F8FFEE74FF0500080F39A
:102F10001188BFF36F8FBFF34F8F00BFFEE74FF0F5
:102F2000500080F31188BFF36F8FBFF34F8F00BF46
:102F3000FEE700002DE9F04F81B041F2EC10C2F243
:102F40000000006840B141F2E810C2F200000168E0
:102F500000240131016093E041F28020C2F20000C0
:102F600001684E1C066021D340F23C50C2F20000C2
:102F70000168096849B14FF0500080F31188BFF330
:102F80006F8FBFF34F8F00BFFEE740F24452C2F293
:102F9000000201681368036041F234201160C2F23C
:102FA0000000016801310160FFF776FC41F2302139
:102FB000C2F20001086840F2385A8642C2F2000AA2
:102FC00001D200244EE040F23C5BC2F2000BDBF881
:102FD000000000240068D8B341F2F4190127C2F2BE
:102FE00000091FE0D8F82C00D9F8001007FA00F209
:102FF0001143C9F8001040F2485100EB8000C2F2C2
:10300000000101EB80002946FFF770FDD8F82C0085
:10301000DAF80010C96ADBF800208842106828BF7F
:103020003C46C0B1DBF80000C068D0F80C804546D3
:1030300055F8040F864210D32846FFF709FDD8F84B
:1030400028000028CED008F11800FFF701FDC9E7DD
:103050004FF0FF3005E04FF0FF3041F23021C2F277
:1030600000010860DAF8000040F24851C06AC2F27C
:10307000000100EB800051F82000012888BF0124E6
:1030800041F28420C2F200000068002818BF012429
:10309000204601B0BDE8F08F2DE9F04F81B041F23C
:1030A000EC14C2F20004206868B1FFF72DFD20681F
:1030B00001382060206880B10024FFF749FD2046D8
:1030C00001B0BDE8F08F4FF0500080F31188BFF3DE
:1030D0006F8FBFF34F8F00BFFEE741F2E010C2F2E7
:1030E0000000006800285FD041F23826C2F20006D6
:1030F000306841F28428C2F2000898B341F2F41516
:1031000040F2485940F2385A4FF0010BC2F2000524
:10311000C2F20009C2F2000AF068C76807F118009D
:10312000FFF796FC3C1D2046FFF792FCF86A2968E1
:103130000BFA00F2114300EB8000296009EB8000DC
:103140002146FFF7D3FCF86ADAF80010C96A884212
:1031500028BFC8F800B030680028DDD1002F18BFA4
:10316000FFF79AFB41F2E814C2F2000425685DB152
:10317000012600BFFFF7DEFE002818BFC8F8006078
:10318000013DF7D100202060D8F8000070B14EF664
:103190000450CEF200004FF080510160BFF34F8F1A
:1031A0000124BFF36F8F88E7002486E7002484E7BB
:1031B000E4310008851F0008000000000000000046
:1031C000800000000000000000000000000000007F
:1031D00000000000010203040607080900000000C7
:1031E0000102030464656661756C745461736B005D
:1031F0001032000800000020100000002801000824
:103200002032000810000020781800004401000857
:103210000024F4000100000010000000AAAAAAAADD
:04000005080000ED02
:00000001FF
